:020000020000FC
:10000000CFCB18951895189518951895189518959B
:100010001895189518951895189518951895189578
:100020001895189518951FE114BB15B3107F202F54
:1000300022952F70C29A212B25BB00C0C29800C008
:10004000202F2F70C29A212B25BB00C0C29810E12F
:1000500014BB08951FE114BB15B3107F202F229508
:10006000F0CFAC98F0E0E0EA3AE00591373018F0D4
:10007000F1DF13E202C0D7DF10E101501040E9F7D1
:100080003A9599F7AC9A38E00591CDDF08EC0A95DE
:10009000F1F73A95C9F704E7088B0FE0098B08954B
:1000A00030303020280801060C40060909060000FF
:1000B0000000A4E135FC8BC00EA5DEA7003069F07E
:1000C000093028F41B851030C1F40A9531C00D3079
:1000D000A1F00E3081F00B3091F00985003011F065
:1000E000063059F400E00D930AA132FE00E00D93B2
:1000F0000AE4188546C103E0F6CF04E0F4CF0DAD65
:1001000001E00D930FEF1D930D93DD93DD9394E9C3
:1001100080E79D938D9319E102ED1D930D939D93BF
:100120008D9310E00AE01D930D930CE10D93DCCF4D
:1001300016E0019FF1E0EEE9E00DF11D01E00D9305
:100140000FEF0D930D93059115911D930D9394E968
:1001500080E79D938D931FEF0FEF2BA130E01CD90B
:10016000000F111F000F111F000F111F2591359156
:10017000FBD81D930D939D938D9330E0212F1FEF9E
:100180000FEF0AD99801F0D83EE520E6EDD81D938F
:100190000D93059112E033FE01270D93A5CF54680E
:1001A0004D5B0C0000006A9E080054684D5B0D001A
:1001B00000008F400C0000008F400D0054684D5B24
:1001C0000E0000006A9E0A0054684D5B0F00DEA717
:1001D0000CA5015038F00CA7E8940C3808F468948A
:1001E00032F87BCF37FC79CF3DA53032E0F70DA157
:1001F0001EA12FA101501040204068F00DA31EA3A6
:100200002FA312D030FE089501EF08A301E00CA344
:1002100004E0098708950B850F7829F721F7C3D3E8
:10022000D98700E708A3089544D330FC0895AE2F82
:100230005BCFE89480F868940AAD03950E3110F016
:100240000EE137F80AAF0091A90003950E3110F0C6
:100250000EE131F80093A9000985053039F031FC31
:1002600002C037FE03C09FD305E0098722CF00E01C
:100270000BB908E10AB906E800BD00E000BD09E1DC
:1002800009B900E10C830D830FEF0B83DE83929895
:100290008A9A00E30887DF8308950CB11CAD1150E2
:1002A00098F1DE831CAF103069F535FE07C02CA530
:1002B000203021F4689480F825E02BAF1FAD109515
:1002C0000117F9F4D093A900E89431F80FAD037049
:1002D000C1F019851430A9F095E001FF0CC092E03F
:1002E0000091A4001091A5000F5F1F4F20F4009310
:1002F000A4001093A5009CA304E009870DE00EA7BD
:1003000052D39ACA0FAF98CAAB81AF3F69F0A03001
:10031000A1F010910001A117C1F00D931F81100FE2
:100320001F83AB83DE8388CA0431E1F70E8100317D
:10033000C8F301E10F83A395F4CF013010F00E3123
:1003400010F0AFEFEECF0D5FE8CF1F810117C9F7B7
:1003500001E10E8304E10C83A1E00D911D91AB83BB
:1003600028850217F1F0207F0217D9F000E10C83F5
:100370000D830FEF0B8360CAAC81A431B9F301D0B8
:100380005BCA4A2F4451A395AD83A0E1AC8324E11D
:100390002D934D930D931D930FEF0B83DCAFDF83F4
:1003A0000895AB810D91AB83003031F4AC8100E84E
:1003B0000D933D92AC8361C0013059F468D100E0E7
:1003C0000DB900E00EB9AC8101E80D933D92AC830C
:1003D00054C0023059F419D200E00DB900E00EB952
:1003E000AC8102E80D933D92AC8347C0003859F4CC
:1003F0000D91AB830B870F730DA7DAAFE89437F835
:1004000002E00CAF3AC0003791F4FD91ED91AB835F
:10041000AC8110EF1D939F2FF7709695969596954A
:1004200021F001910D939A95E1F7AC8326C0013735
:1004300071F4FD91ED919F2FF77096959695969595
:1004400021F00D9101939A95E1F7AB8316C0023725
:1004500071F4FD91ED910D911D912D91AB83F89467
:1004600030813023312B32273083789406C00F3708
:1004700009F40DC0A0910001AB8300910001AB8194
:10048000A01708F48FCF00910201188575CF00E006
:100490000DB900E00EB9F8940CE207BB00E108BB0F
:1004A00000E104BB00E205BB04E301BB08E202BBC0
:1004B00004E00EBF0FE50DBFB1E0D0E0C0E6DFBD48
:1004C000DEBDD3BFD5BDD0E0C0E6B1E0A0E0F0E036
:1004D000E0E6D193F230E8F3BFCC02E005BD089529
:1004E00000E408BFA889A43718F40D91A88B9BDD00
:1004F0000E81039531F00E83083019F40FEF0B8352
:10050000DCAF788189819A817F5F8F4F9F4F78839D
:1005100089839A837F3309F05EC035FE0DC00CA538
:100520000C3150F0003210F40CE805C08F7011F05F
:10053000833011F406E00F8F08A107FB0F770150FD
:1005400040F007F908A30F700EF4077011F40EE1E4
:100550000F8F35FE1CC08370D1F40091A0000A9566
:10056000A1F40091A10003950C3360F00091A2006A
:100570001091A3000F5F1F4F20F40093A20010936F
:10058000A30000E00093A10005EE0093A0000FA5DA
:10059000005108F400E00FA70DAD015048F481FEB2
:1005A00008C00B851EA5012B21F4E89481F801C039
:1005B0000DAF32FE0FC00985003011F0063019F47E
:1005C00006E00EAF07C00EAD015018F400E0E8944D
:1005D00032F80EAF1BC97F71733041F40BAD01507F
:1005E00018F4689480F805E00BAF10C97F71713082
:1005F00011F488D30BC97F71723011F4FDD206C992
:1006000005C901501040E8F70895015010402040FE
:10061000E0F708950FEF0FB90EB107FFFDCF0FB14F
:100620008150904008950FB9779BFECF0FB1089588
:100630003EE10FEFF8DF0FEFF6DF0FEFF4DFA0E39F
:1006400010E00D91003009F411E000640FB9779BC0
:10065000FECF0FB10D910FB9779BFECF0FB1A53330
:10066000C8F305E90FB9779BFECF0FB122E30FEF77
:100670000FB9779BFECF0FB10F3F11F42A95B9F751
:10068000101721F03A95A9F6689430F808950AE019
:100690000F930FEA16E3B5DF02E50DB900E00EB9DE
:1006A000959A0FE617E1ADDF1CE00FEFBCDF1A955E
:1006B000E1F707EB1BE0A5DF959807EB1BE0A1DF57
:1006C000E89430F8A0E3DD93DD93DD93DD93DD93D3
:1006D000AFDF30FC0FC00FE11EE493DFA0E301E0C9
:1006E0000D93A6DF30FC06C00F9100E50DB900E0C8
:1006F0000EB908950F910A9559F60895A0E300E107
:100700000D93DD93DD939D938C9392CFF7DF30FCB7
:100710000895A0E301E10D937D936D935D934C9358
:1007200087DF30FC089523E118E80FEF7CDF0E3FF0
:1007300029F011502040C9F7689430F88E5F9F4F20
:100740000895E89436F809A118E2109FB00150E02E
:1007500040E090E084E4DADF30FC0895F9E0E8E579
:1007600030E02CE057DF300F1591101739F52A953E
:10077000C9F7A7E34FDF300F0D93AF35D8F34ADF4A
:10078000300F202F47DF300F102F44DF300F0230A3
:100790001D072D0798F00D3A43E1140743E02407A5
:1007A00068F408A719A72AA74CE034DF300F4A9550
:1007B000E1F730DF031711F4689436F82BDFF2F716
:1007C0000895A0E308E10D939D938D937D936C9321
:1007D0002FDF30FC08950FEF26DF0FEF24DF0EEF41
:1007E00022DF08951BE028EB0FEF1DDF0F3F19F408
:1007F00011502040C9F71FE020EA0FEF14DF00304E
:1008000019F411502040C9F7089541DF30FC0895D4
:1008100092E080E073DF30FC089590E080E070E0CB
:1008200060E054E1CEDF30FC0895F9E0E8EF22E02B
:1008300010E005910FB9779BFECF0FB1115020400A
:10084000C1F7D0DF885D9F4F5A9561F7089535FE57
:1008500036FE0895689435F808A519A52AA50DA3B4
:100860001EA32FA39DE0099FA00160E0199F500DDA
:10087000611D299F600D91E08CEB481759076D07AA
:1008800008F4CA01481B590B6D0B4FAB58AF69AF49
:100890008AAB9BAB09A118E2109FB00150E044E481
:1008A0005CAB6DAB7EAB32DF30FC7DC008E00DA7EA
:1008B0000895F1E0E4E101E0019308E5F02E4FA98D
:1008C00058AD69AD8AA99BA981509040F0F452506F
:1008D000604030F4CA0150E060E060E09E5F02C01A
:1008E00092E080E08AAB9BAB4FAB58AF69AF5CA99D
:1008F0006DA97EA95E5F6F4F7F4F5CAB6DAB7EAB2A
:1009000040E004DF30FC4FC0DACF0FEF0FB9779B28
:10091000FECF0FB1F00E0193E232B0F2EA95F01A79
:100920001F2D1027187F19F0689430F83CC007700D
:1009300001938AAB9BAB0895DBA7A9DE30FC089539
:1009400000DF689436FE30F830FC089580DF30FC1C
:10095000089506E90CA708954056414C45524F5062
:10096000494C4B417F9393DE7F9130FC089594E195
:100970009F937F93E6DE7F919F9130FE36FC089532
:10098000723071F009A1703021F0015030F403E1B0
:1009900004C00395043108F000E009A39A9541F7DB
:1009A000689430F8089535FE089505E00CA7E894A2
:1009B00035F88AA99BA98D5F9F4F0FEF34DE8150D8
:1009C0009040D9F70BA50233B0F00091A60010912A
:1009D000A7002091A8000395043620F000E01F5FD7
:1009E0002F4F48F40093A6001093A7002093A8006F
:1009F000037009F4B8C608954056414C45524F5013
:100A0000494C4B412A2A2A2A2A2A2A2A2A2A2A2ACD
:100A10002A2A2A2A2A2A2A2A2A2A2A2A2A2A2A2A36
:100A20002A2A2A2A2A2A2A2A2A2A2A2A000000AA24
:100A3000AAAAAAAAAAAAAAAAAAAAAA020000000066
:100A400000000000000000000000000000000000A6
:100A50000000000000000000000000000000000096
:100A60000000000000000000000000000000000086
:100A70000000000000000000000000000000000076
:100A80000000000000000000000000000000000066
:100A90000000000000000000000000000000000056
:100AA0000000000000000000000000000000000046
:100AB0000000000000000000000000000000000036
:100AC0000000000000000000000000000000000026
:100AD0000000000000000000000000000000000016
:100AE0000000000000000000000000000000000006
:100AF00000000000000000000000000000000000F6
:100B000000000000000000000000000000000000E5
:100B100000000000000000000000000000000000D5
:100B200000000000000000000000000000000000C5
:100B300000000000000000000000000000000000B5
:100B400000000000000000000000000000000000A5
:100B50000000000000000000000000000000000095
:100B60000000000000000000000000000000000085
:100B70000000000000000000000000000000000075
:100B80000000000000000000000000000000000065
:100B90000000000000000000000000000000000055
:100BA0000000000000000000000000000000000045
:100BB0000000000000000000000000000000000035
:100BC0000000000000000000000000000000000025
:100BD0000000000000000000000000000000000015
:100BE0000000000000000000000000000000000005
:100BF0000000000000000000C098B89A1FEF95E0C8
:100C00009A95F1F793B3B898C09AC198B99A93FBA3
:100C100001F990FB04F991FB07F992FB12F993B3E8
:100C2000B998C19A97988F9A93FB02F990FB05F9AE
:100C300091FB10F992FB00F993B38F98979A93FB6D
:100C400003F990FB06F991FB11F992FB13F9869BCE
:100C50001F7E109500952A893B890A8B1B8B4C8936
:100C60000217130709F044E0415018F04C8B0A8931
:100C70001B892D893E890D8B1E8B20953095202355
:100C800031231F7E4F89588D422B532B4F8B588F0A
:100C9000498D5A8D422B532B498F5A8F422F432B0C
:100CA00091F04DE0415078F0220F331F35FFFACF1D
:100CB0004E8F5D8D5F3F09F44D8F43E04F8FD8A37A
:100CC00050E44AE515C0402F412BA1F04B8D5C8DBF
:100CD0004A9571F4298D3A8D202B312B298F3A8F2B
:100CE0002D8D2F3F11F42E8D2D8F40E25695450FFF
:100CF0004B8F5C8F0F8D015018F00F8F949A0895D1
:100D000094980895098903950F71098B102F177016
:100D1000143009F47DC3043008F00895AC98FEE067
:100D2000ECEFE00FFD1F04917ED9AC9AA0E6A88BF2
:100D3000098914E1019FF001098510E5019FE00D8B
:100D4000F11DE050F14FA0E605910D93A437E0F3BB
:100D5000998589899A3010F090E09987843008F05D
:100D60000895903051F4833039F402EC31FC03C023
:100D700000EC32FC01EC9FC20895913031F48130D7
:100D800019F409A1A1E7B1C208959230B9F48130F4
:100D900049F40AA110E008511C4FAEE622E030E20F
:100DA000ACD20895823019F40BA1AEE69EC2833016
:100DB00021F403EC33FE04EC7EC20895933079F401
:100DC000823041F4E7E3F1E0A0E601910D93A4370E
:100DD000E0F30895833011F4EBE4F5CF08959430F7
:100DE00031F4823019F40CA10B5E65C20895953080
:100DF00041F4813019F437FC089531FE089509E378
:100E00005AC2963009F050C0803011F4E7E3DBCFCE
:100E1000813011F4EBE4D7CF8230D9F50CA5003046
:100E200049F008E148D20CA502950F70039510E235
:100E30001D935BC208A519A52AA538A549A55AA5E1
:100E40006DA17EA18FA1061B170B280B6DA5061B9C
:100E50001D0B2D0B10F400E013C0552339F05695EF
:100E600047953795269517950795F7CF94E6909F68
:100E7000B00180E0919F700D811D8B01282F9FD2C2
:100E80000BA710E008511C4FADE622E030E235D24E
:100E90000895833041F40AA110E008511C4FABE6DD
:100EA00022E030E22AD20895973039F5813061F49A
:100EB0000091A2001091A300A9E624E030E21DD227
:100EC000A3950091A10011C2823059F40091A700AE
:100ED0001091A800A9E624E030E20FD20091A6000C
:100EE00004C2833049F40091A4001091A500A9E642
:100EF00024E030E202D208950895089580C094D489
:100F00003132332DE042A5A1415462202823292DFE
:100F10004D4548B03420362020202020282A292D75
:100F20005045A4414B20484137383920202020200B
:100F30002020202020435441505420202835292DA2
:100F40004841A15045422D3E42AE4BA7B0AB45486B
:100F50002831292D50A9AB484F4520A9A8502E2053
:100F6000202020202832292D435441505420504520
:100F7000A44BA5204E3030202833292D42AEA04F5F
:100F800050205041434B504FB12020202834292D70
:100F9000A84150414D202835292DAA4F504D41548C
:100FA00020A84150414D455450AE20202823292DE2
:100FB0004D4548B03C3132333E4841A15045422076
:100FC00020203030302520203C3435363E434B4FF6
:100FD000504F435462203233BCBC2F633C373E2D0C
:100FE000E042A5A141546220A7A54354202020201F
:100FF00020202042AEA04F50205041434B504FB1D3
:10100000202020203C312D333E2D42AEA04F5020D9
:101010002823292D4D4548B02020202020202020A5
:1010200020202020202020202020202020202020C0
:1010300020202020202020202020202020202020B0
:101040002020205045A44B4120A850455042414803
:10105000412020202020202020202020202020206F
:101060002020202020202020202020202020202080
:101070002020202020202020202020202020202070
:101080002020202020202020202020202020202060
:101090002020202020202020202020202020202050
:1010A0002020202020202043A5A74F424FA6204DDE
:1010B0004FE0A9A762202020202020204845204F73
:1010C000544245AB414554202020202020202020A0
:1010D0002020202020202020202020202020202010
:1010E0002020202020202020202020202020202000
:1010F00020202020202020202020202020202020F0
:10110000202020202020202020204FA05041A04F30
:101110005441484F20303030252020203C2A3C20AC
:101120004841A15045422030303025203E233E200A
:10113000202020202043544154A54354A54B412056
:10114000202020202020204250454DB1202020206A
:1011500020203A20202020202020A7A543544F42C1
:10116000202020202020202020202020202020435C
:101170005450A9482020202020202020202020205A
:10118000202020202020202020202020202020205F
:10119000202020202020204FACA5A04B41205041F2
:1011A000A04F54AE20202020202043204B415054FB
:1011B0004FA620A8414DB154A5202020202020205A
:1011C000202020202020202020202020202020201F
:1011D0002020AA4F504D4154A5504F424148A545AB
:1011E000202020202020204B415054AE20A8414DEB
:1011F000B154A52020202020202020202028232991
:101200002D4D4548B0202020202020202028312CA2
:10121000322C332C382C2A292DAA4F504D415420E2
:1012200042AE4BA7B0AB454800424BA7B0AB4548D8
:1012300020004FA050AE4220202000A7A5435420FC
:10124000202020005045A4414B20202000A85045DC
:101250005042414841204FA8455041544F504F4DB6
:10126000004FACA5A04B4120AB544548A5B1204B45
:10127000415054AE002020204FA050AE4220435495
:1012800050A948AE004841A150454220435450A9BE
:1012900048AE004D4FE0A9A7622048414B41A7410D
:1012A00020002020A4414DAE4B4148A54520435489
:1012B00050A948AE0000A02FA295AF700F70A05AA1
:1012C000F2E1E0E2015020F005900020E9F7FACFCA
:1012D0000591002349F0003828F0003A18F400582E
:1012E000A00FF6CF0D93F4CF08951FE213950A5087
:1012F000E8F71D93065C0D930895F3E1EAE2E22E10
:1013000024E030E2F590059030730F19100918F0C1
:1013100030633395FACF0F0D101DE21608F03D93A0
:101320002A9581F7005D0D9308951027E803640066
:101330000A00A2500C91003209F400E30D930C91C5
:101340001EE21D930D930895A3500C91003209F4F1
:1013500000E30D930C91003209F400E31EE21D93AB
:101360001C910D931D9308954F935F936F93029F6C
:10137000412D50E060E0039F400D511D6D1F129FF5
:10138000400D511D6D1F139F500D611D052F162F10
:101390006F915F914F910895EE24FF1841E1001F76
:1013A000111F4A9509F40895EE1CFF1CE21AF30A76
:1013B00020F4E20EF31E8894F2CF0894F0CFDD24DF
:1013C000EE24FF1869E1001F111F221F6A9509F41E
:1013D0000895DD1CEE1CFF1CD31AE40AF50A28F45C
:1013E000D30EE41EF51E8894EECF0894ECCFFF18C0
:1013F00029E0001F2A9511F400950895FF1CF11AA9
:10140000C0F7F10EF6CF05900D920A95E1F7089519
:1014100099858D8D6D897E89498D5A8D0A8509172B
:1014200029F0072F0F7E062B09F02BC19A879030E9
:1014300009F04FC081FE07C08F3F21F00DE00EA7DD
:10144000E89481F81EC134FE09C067270C85061791
:1014500019F10DE00EA7E89434F813C1262F2E7D64
:10146000372F3370232B0B85003019F0203089F390
:1014700014C0203091F04E8D413078F0453069F045
:1014800018F04A95493048F40EA5003029F44EA7CB
:10149000689434F867276C87F4C08A3059F40B8558
:1014A0001EA5012B31F40BE00EA7689481F80FE024
:1014B0000DAFE7C0853019F404E03026E2C08B3070
:1014C00039F4E89432F80DE00EA701E00987D9C09D
:1014D000D8C0913091F58F3F79F1F6E1E0E90FA5A1
:1014E0000F70E00FFD1F1491181711F0DFA708C04F
:1014F000093010F097E01AC00395006F0FA7C1C024
:10150000813011F490E012C0823029F415DA96E0AF
:1015100030FC98E00BC0833031F470E023DA93E0C4
:1015200030FC98E003C0843019F492E09987A9C098
:10153000853011F499E0FACFA4C09230D1F58B3008
:1015400061F40BA11FEF06EF29E03BA150E040E062
:1015500036DF08AB19AB07D1B8CF0AA1813031F41F
:10156000015010F0053040F400E009C0833039F438
:101570000395053008F405E0043608F004E68230EF
:1015800009F402E30AA30BA1843009F40A9586301A
:1015900009F40395853009F40CE30A3008F40AE0F5
:1015A000003508F000E50BA3873011F408E0302681
:1015B00068C09330C9F48B3011F4D5D086CF09A11F
:1015C000813029F471E0015048F403E107C0833011
:1015D00051F470E00395043108F000E009A3C2D98A
:1015E00098E030FCA3CF4DC09630D1F40AA18A30E8
:1015F00029F4015008F400E00AA30AC08B3029F452
:1016000003950536C8F304E6F7CF8F3F00E009F4F1
:1016100038C00CA304E009870DE00EA7C4D931C07F
:10162000973069F48B3009F450CF6E706E3031F41E
:10163000F0E0E0EAD193E83AE8F395D022C099309F
:10164000E1F48B3009F441CF8F3FB1F0F6E1EAE9E4
:101650000FA50F70E00FFD1F1491181711F0DFA7F1
:101660000BC0043028F0D1D830FE2FCF98E05ECFE9
:101670000395006F0FA705C004C08F3F11F001E074
:1016800009870FEF0D8FDF8BD88FD98FDA8F0895F1
:1016900000050003000306070106010203080A0013
:1016A000E199FECF8EBB9FBBE09A0DB38F5F9F4F3A
:1016B00008951F93E199FECF8EBB9FBB8F5F9F4F15
:1016C000E09A1DB3101729F00DBBF894E29AE19A45
:1016D00078941F91089590E080E0E2DF053A51F59B
:1016E000402FDEDF400F043108F000E009A3D8DF0F
:1016F000400F0A3008F40AE0003508F000E50BA3BB
:10170000CFDF400F003031F0053008F405E004363B
:1017100008F004E60AA3C4DF400F00FB33F8F0E052
:10172000E0EABEDF400F0083E395E83AD0F3B8DF8C
:10173000041711F00BD017D01FEF06EF29E03BA1E3
:1017400050E040E03CDE08AB19AB0895E89433F874
:101750000CE30BA302E30AA3D9A3F0E0E0EAD193E0
:10176000E83AE8F3089590E080E005EA402FA1DF31
:1017700009A1400F9EDF0BA1400F9BDF0AA1400F84
:1017800098DF00E033FA00F9400F93DFF0E0E0EA81
:101790000191400F8EDFE83AD8F3042F8ADF0895D5
:1017A0000CE207BB00E108BB00E104BB00E205BBA3
:1017B00004E301BB08E202BB04E00EBF0FE50DBF6E
:1017C000D0E0C0E6B1E0A0E0F0E0E0E6D193F23096
:1017D000E8F3D0E0C0E6B1E0A0E022E010E000E0F5
:1017E000015010402040E1F700E00DB900E00EB9D3
:1017F0003324882472D63BD534D40FEF0D8F6BDFA2
:10180000789480FC16D508B706FD6AC6AC811D81A8
:10181000A11771F05D9B10C0929A0D91A11709F468
:101820000F810CB9AC831F81100F1F835E9A04C017
:0A1830005E9992985F9931C5E4CFEC
:101E0000F8940CE207BB00E108BB00E104BB00E270
:101E100005BB04E301BB08E202BB92988A9A04E086
:101E20000EBF0FE50DBFB1E0D0E0C0E6DFBDDEBD07
:101E3000D3BFD5BDD0E0C0E6B1E0A0E0F0E0E0E681
:101E4000D193F230E8F3DBB908E10AB906E800BD46
:081E500000E000BD09E109B941
:00000001FF
