:020000020000FC
:1000000026C2189510C0189518951895189518952A
:100010001895189518951895189518951895189578
:10002000189518951895DFBDDEBDC1982FB6689458
:1000300031F82FBED5BFDBBF00E80ABFC1981895C5
:10004000C3C206E806B900E000BF01E009870FEF70
:100050000A87F0E0E1E4049107B9369AE89430F8B1
:10006000089584B195B179856A85615078F467E126
:100070000985015020F401E0689430F86FEF09879A
:10008000F0E0E0E4E00FFD1F049107B9369A6A87BB
:100090000B851C85080F191F673118F0DB87DC877B
:1000A00005C06F3010F40B871C871DC2A0E4A70F9A
:1000B000A70F000F111F000F111F0D931D9313C2E7
:1000C00000E00BB908E10AB906E800BD00E000BD98
:1000D00009E109B900E20C830D830FEF0B83DE8386
:1000E00092988A9A05E30887DF8308950CB1AB8163
:1000F000AF3F69F0A030A1F010910001A117C1F04D
:100100000D931F81100F1F83AB83DE83E7C1043182
:10011000E1F70E810031C8F301E10F83A395F4CF1D
:10012000013010F00E3110F0AFEFEECF0D5FE8CFE1
:100130001F810117C9F701E10E8304E20C83A1E0DE
:100140000D911D91AB8328850217E9F0207F0217DE
:10015000D1F000E20C830D830FEF0B83BFC1AC81A4
:10016000A432B9F301D0BAC14A2F4452A395AD834A
:10017000A0E2AC8324E12D934D930D931D930FEFDB
:100180000B83DF830895AB810D91AB83003059F46D
:100190000D911D91AB83088B198BAC8100E80D93F9
:1001A0003D92AC833AC0003791F4FD91ED91AB8361
:1001B000AC8110EF1D939F2FF770969596959695AD
:1001C00021F001910D939A95E1F7AC8326C0013798
:1001D00071F4FD91ED919F2FF770969596959695F8
:1001E00021F00D9101939A95E1F7AB8316C0023788
:1001F00071F4FD91ED910D911D912D91AB83F894CA
:1002000030813023312B32273083789406C00F376A
:1002100009F4F6CDA0910001AB8300910001AB8100
:10022000A01708F4B1CF00910201188598CF02E021
:1002300005BD089500E408BF0E81039529F00E83E3
:10024000083011F40FEF0B83788189819A817F5FE9
:100250008F4F9F4F788389839A837F3309F00BC038
:10026000369A07E10A87098D0395043110F0D88F7B
:1002700004E1098F1DC17330A1F4088D003029F00D
:1002800082FD969A82FF96980BC08F7014E0098DBC
:10029000043108F01CE0811710F0969801C0969A7E
:1002A00007C17F71713009F403C17F71723009F4A5
:1002B000FFC0FEC04F935F936F93029F412D50E0AC
:1002C00060E0039F400D511D6D1F129F400D511D99
:1002D0006D1F139F500D611D052F162F6F915F919C
:1002E0004F910895EE24FF1841E1001F111F4A9518
:1002F00009F40895EE1CFF1CE21AF30A20F4E20E42
:10030000F31E8894F2CF0894F0CFDD24EE24FF187A
:1003100069E1001F111F221F6A9509F40895DD1C71
:10032000EE1CFF1CD31AE40AF50A28F4D30EE41ECF
:10033000F51E8894EECF0894ECCFFF1829E0001F3B
:100340002A9511F400950895FF1CF11AC0F7F10EDB
:10035000F6CF05900D920A95E1F70895E89430F8EC
:100360000E8D02950F701AE0019F1E8D1F70100DEB
:1003700000E0000F111F3EEC25E99CDF000F111F6C
:100380000C8B1D8B0F8D02950F701AE0019F0F8D46
:10039000000D11E6019FA00110E0019F500D0A8998
:1003A0001B89041B150B0E8B1F8B0C891D89012BC0
:1003B00011F4D88BD98B0091400110914101169511
:1003C00007952C893D8936952795201B310B009187
:1003D000420110914301169507954E895F89569504
:1003E0004795041B150B021713070CF0890117FB27
:1003F00026F4109500950F5F1F4F103019F400344C
:1004000008F011E0888999898D179D0731F42091B2
:100410004201309143012A8B3B8B4EF0810F9D1F8F
:1004200011E08039910740F091E080E905C0811B1F
:100430009D0B10F490E080E0888B998B08891989D6
:1004400031E020E9201B310B3BBD2ABD089502E0BD
:1004500007BB0DE308BB00E004BB03E305BB04ECF2
:1004600001BB00E202BB04E00EBF0FE50DBFD0E010
:10047000C0E6B1E0A0E0F0E0E0E6D193F230E8F3CE
:10048000D0E0C0E6B1E0A0E022E010E000E00150E2
:1004900010402040E1F700E00DB900E00EB9332430
:1004A0008824C5DE0DDECDDD789408B706FDC2CE0A
:1004B000AC811D81A11771F05D9B10C0929A0D91C6
:1004C000A11709F40F810CB9AC831F81100F1F8392
:1004D0005E9A04C05E9992985F9908CE0A850F3F94
:1004E00011F0369BBECD30FC39DFDFCF08E005BF11
:1004F00000E80ABF00E80BBFC19811E000E917BD92
:1005000006BD11E000E91BBD0ABD02EC0FBD09E10B
:100510000EBD0895D5BFDBBF00E80ABF11E000E9BA
:1005200011E000E91BBD0ABDDFBDDEBDC198089525
:00000001FF
