:020000020000FC
:100000007FC21895189518951895189566C118957A
:100010001895189518951895189518951895189578
:1000200018951895189500E00BB908E10AB906E88B
:1000300000BD00E000BD03E309B900E80C830D83B7
:100040000FEF0B83DE8392988A9A0AE40887DF8396
:1000500008950CB1AB81AF3F69F0A03089F01091E9
:100060000001A117A9F00D931F81100F1F83AB830F
:10007000DE8381C20431E1F701E10F83A395F7CF5D
:10008000013010F00E3110F0AFEFF1CF0D5FEBCF7C
:100090001F810117C9F701E10E8304E80C83A1E079
:1000A0000D911D91AB8328850217E9F0207F02177F
:1000B000D1F000E80C830D830FEF0B835CC2AC81A1
:1000C000A438B9F301D057C24A2F4458A395AD8341
:1000D000A0E8AC8324E12D934D930D931D930FEF76
:1000E0000B83DF8308950EE10987AB810D91AB830C
:1000F000003019F4A395AB8385C00130F1F4A998C1
:100100000DA10032C0F40CA1E02F03950F710CA3D8
:10011000F2E0E4FDF3E0EF70E2951E2F135FF89438
:100120000DA103950DA30D910193E117E0F37894D0
:10013000A395AB8367C0A25FFCCF033061F4A395A6
:10014000AB83F894D88BD98BDDA3DCA3DBA3E89435
:1001500036F8789457C0043089F4A395AB8310EF38
:1001600000E02FEFF8942D8F2E8F0F8F18A3DDA3B3
:10017000DCA3DBA3E89436F8789444C0003791F40C
:10018000FD91ED91AB83AC8110EF1D939F2FF77024
:1001900096959695969521F001910D939A95E1F794
:1001A000AC8326C0013771F4FD91ED919F2FF7705C
:1001B00096959695969521F00D9101939A95E1F774
:1001C000AB8316C0023771F4FD91ED910D911D9135
:1001D0002D91AB83F89430813023312B322730833B
:1001E000789406C00F3709F40BCEA0910001AB83C1
:1001F00000910001AB81A01708F478CF00910201B3
:1002000018855DCFAC8100E80D93F8940DA1188995
:1002100029897894212B202B09F000680D93AC8359
:10022000E7CF02E005BD089500E408BF0E81039505
:1002300029F00E83083011F40FEF0B837881898148
:100240009A817F5F8F4F9F4F788389839A83773E10
:1002500019F50985015080F0098771F410EF00E06D
:100260002FEFF8942D8F2E8F0F8F18A3DDA3DCA313
:10027000DBA3E89436F878940DA118892989012B1D
:10028000022B29F082FF979A82FD979804C08F7104
:100290008430D8F7979A59C177707230A1F435FE3F
:1002A00011C00DA118892989212B202B59F0849B7D
:1002B00009C0F894D88BD98BDDA3DCA3DBA3E89429
:1002C00036F8789442C141C100E4702E00E00FBDC1
:1002D00001E00EBD00E109BF0895C29AC19A2FB690
:1002E000460C571C5BBC4ABC0F931F932F933F9344
:1002F0008F939F9333FE0AC031FCC09A31FEC098A1
:1003000032FCA89A32FEA898E89433F80889198933
:100310000D171D0789F12A892A9589F48EA19FA1BD
:100320008F5F9F4F8EA39EA330FEC19830FCC29872
:1003300036FC02C001501040088B198B24E02A8B38
:100340000B891C892D89021B2E89120B68F42F89B9
:10035000020F288D121F298D2A9529F430FEC2988C
:1003600030FCC19824E0298F0B8B1C8B08891989DC
:100370000D171D0709F046C00DA1015018F490E4B7
:1003800080E087C00DA30BA1AF93A02FB2E0A4FD26
:10039000B3E0AF70A29503950F710BA31D910D9162
:1003A000088B198B0F8B188F015010400B8B1C8BF7
:1003B0001D910D910D8B1E8B7D906D901D910D915A
:1003C00009A31AA31D910D910F8F18A31D910D91D3
:1003D0000D8F1E8F0D91AF91B1E003FB36F804FB3A
:1003E00035F800FB31F801FB32F8689433F802FB72
:1003F00030F81BEB00E80A8F1B8FDC8F04E00A8BC0
:10040000098F4CC02A8D3B8D2619370918F02A8F89
:100410003B8F44C0205834442A8F3B8F2D8D3E8D16
:100420000217130718F48F8D98A102C089A19AA111
:100430008615970579F1689408F4E8940F921F9255
:10044000779C9001679C102D210D3D1F100D211DE3
:100450003D1F669C110D2D1F3D1F36952795179545
:100460003695279517951EF03695279517951F9069
:100470000F900C8D3EF4010F621E731E50F0681633
:10048000790606C0011B620A730A18F086159705E3
:1004900020F03C0100E0903F48F40C8F9F918F9139
:1004A0003F912F911F910F912FBE1895D88BD98B0B
:1004B000DDA3DBA3DCA3689434F890E480E0E9CF0B
:1004C0000DA1083008F008950CA1A02F0395077026
:1004D0000CA3A29526E0059115911D930D932A95E5
:1004E000D1F704910C93F8940DA103950DA3789482
:1004F0000895C4054A02215A0918215A2900070003
:1005000001E008BB0FE307BB03E005BB03E004BB4E
:1005100000E002BB04EE01BB04E00EBF0FE50DBF1F
:10052000D0E0C0E6B1E0A0E0F0E0E0E6D193F23048
:10053000E8F3D0E0C0E6B1E0A0E0332472DE73DD82
:10054000C3DE789408B706FD6FCEAC811D81A1177C
:1005500071F05D9B10C0929A0D91A11709F40F8163
:100560000CB9AC831F81100F1F835E9A04C05E9983
:0805700092985F996ECDE6CF71
:00000001FF
